{
  "_format": "hh-sol-artifact-1",
  "contractName": "ClaimToken",
  "sourceName": "contracts/ClaimToken.sol",
  "abi": [
    {
      "inputs": [
        {
          "internalType": "string",
          "name": "name",
          "type": "string"
        },
        {
          "internalType": "string",
          "name": "symbol",
          "type": "string"
        },
        {
          "internalType": "address",
          "name": "initialOwner",
          "type": "address"
        }
      ],
      "stateMutability": "nonpayable",
      "type": "constructor"
    },
    {
      "inputs": [
        {
          "internalType": "address",
          "name": "spender",
          "type": "address"
        },
        {
          "internalType": "uint256",
          "name": "allowance",
          "type": "uint256"
        },
        {
          "internalType": "uint256",
          "name": "needed",
          "type": "uint256"
        }
      ],
      "name": "ERC20InsufficientAllowance",
      "type": "error"
    },
    {
      "inputs": [
        {
          "internalType": "address",
          "name": "sender",
          "type": "address"
        },
        {
          "internalType": "uint256",
          "name": "balance",
          "type": "uint256"
        },
        {
          "internalType": "uint256",
          "name": "needed",
          "type": "uint256"
        }
      ],
      "name": "ERC20InsufficientBalance",
      "type": "error"
    },
    {
      "inputs": [
        {
          "internalType": "address",
          "name": "approver",
          "type": "address"
        }
      ],
      "name": "ERC20InvalidApprover",
      "type": "error"
    },
    {
      "inputs": [
        {
          "internalType": "address",
          "name": "receiver",
          "type": "address"
        }
      ],
      "name": "ERC20InvalidReceiver",
      "type": "error"
    },
    {
      "inputs": [
        {
          "internalType": "address",
          "name": "sender",
          "type": "address"
        }
      ],
      "name": "ERC20InvalidSender",
      "type": "error"
    },
    {
      "inputs": [
        {
          "internalType": "address",
          "name": "spender",
          "type": "address"
        }
      ],
      "name": "ERC20InvalidSpender",
      "type": "error"
    },
    {
      "inputs": [
        {
          "internalType": "address",
          "name": "owner",
          "type": "address"
        }
      ],
      "name": "OwnableInvalidOwner",
      "type": "error"
    },
    {
      "inputs": [
        {
          "internalType": "address",
          "name": "account",
          "type": "address"
        }
      ],
      "name": "OwnableUnauthorizedAccount",
      "type": "error"
    },
    {
      "inputs": [],
      "name": "ReentrancyGuardReentrantCall",
      "type": "error"
    },
    {
      "anonymous": false,
      "inputs": [
        {
          "indexed": true,
          "internalType": "address",
          "name": "owner",
          "type": "address"
        },
        {
          "indexed": true,
          "internalType": "address",
          "name": "spender",
          "type": "address"
        },
        {
          "indexed": false,
          "internalType": "uint256",
          "name": "value",
          "type": "uint256"
        }
      ],
      "name": "Approval",
      "type": "event"
    },
    {
      "anonymous": false,
      "inputs": [
        {
          "indexed": true,
          "internalType": "address",
          "name": "previousOwner",
          "type": "address"
        },
        {
          "indexed": true,
          "internalType": "address",
          "name": "newOwner",
          "type": "address"
        }
      ],
      "name": "OwnershipTransferred",
      "type": "event"
    },
    {
      "anonymous": false,
      "inputs": [
        {
          "indexed": true,
          "internalType": "address",
          "name": "claimer",
          "type": "address"
        },
        {
          "indexed": false,
          "internalType": "uint256",
          "name": "amount",
          "type": "uint256"
        }
      ],
      "name": "TokensClaimed",
      "type": "event"
    },
    {
      "anonymous": false,
      "inputs": [
        {
          "indexed": true,
          "internalType": "address",
          "name": "from",
          "type": "address"
        },
        {
          "indexed": true,
          "internalType": "address",
          "name": "to",
          "type": "address"
        },
        {
          "indexed": false,
          "internalType": "uint256",
          "name": "value",
          "type": "uint256"
        }
      ],
      "name": "Transfer",
      "type": "event"
    },
    {
      "inputs": [],
      "name": "CLAIM_AMOUNT",
      "outputs": [
        {
          "internalType": "uint256",
          "name": "",
          "type": "uint256"
        }
      ],
      "stateMutability": "view",
      "type": "function"
    },
    {
      "inputs": [],
      "name": "MAX_TOTAL_SUPPLY",
      "outputs": [
        {
          "internalType": "uint256",
          "name": "",
          "type": "uint256"
        }
      ],
      "stateMutability": "view",
      "type": "function"
    },
    {
      "inputs": [
        {
          "internalType": "address",
          "name": "owner",
          "type": "address"
        },
        {
          "internalType": "address",
          "name": "spender",
          "type": "address"
        }
      ],
      "name": "allowance",
      "outputs": [
        {
          "internalType": "uint256",
          "name": "",
          "type": "uint256"
        }
      ],
      "stateMutability": "view",
      "type": "function"
    },
    {
      "inputs": [
        {
          "internalType": "address",
          "name": "spender",
          "type": "address"
        },
        {
          "internalType": "uint256",
          "name": "value",
          "type": "uint256"
        }
      ],
      "name": "approve",
      "outputs": [
        {
          "internalType": "bool",
          "name": "",
          "type": "bool"
        }
      ],
      "stateMutability": "nonpayable",
      "type": "function"
    },
    {
      "inputs": [
        {
          "internalType": "address",
          "name": "account",
          "type": "address"
        }
      ],
      "name": "balanceOf",
      "outputs": [
        {
          "internalType": "uint256",
          "name": "",
          "type": "uint256"
        }
      ],
      "stateMutability": "view",
      "type": "function"
    },
    {
      "inputs": [
        {
          "internalType": "address",
          "name": "claimer",
          "type": "address"
        }
      ],
      "name": "canClaimTokens",
      "outputs": [
        {
          "internalType": "bool",
          "name": "canClaim",
          "type": "bool"
        }
      ],
      "stateMutability": "view",
      "type": "function"
    },
    {
      "inputs": [],
      "name": "claimTokens",
      "outputs": [],
      "stateMutability": "nonpayable",
      "type": "function"
    },
    {
      "inputs": [],
      "name": "decimals",
      "outputs": [
        {
          "internalType": "uint8",
          "name": "",
          "type": "uint8"
        }
      ],
      "stateMutability": "view",
      "type": "function"
    },
    {
      "inputs": [],
      "name": "getClaimAmount",
      "outputs": [
        {
          "internalType": "uint256",
          "name": "",
          "type": "uint256"
        }
      ],
      "stateMutability": "pure",
      "type": "function"
    },
    {
      "inputs": [],
      "name": "getRemainingSupply",
      "outputs": [
        {
          "internalType": "uint256",
          "name": "",
          "type": "uint256"
        }
      ],
      "stateMutability": "view",
      "type": "function"
    },
    {
      "inputs": [
        {
          "internalType": "address",
          "name": "",
          "type": "address"
        }
      ],
      "name": "hasClaimed",
      "outputs": [
        {
          "internalType": "bool",
          "name": "",
          "type": "bool"
        }
      ],
      "stateMutability": "view",
      "type": "function"
    },
    {
      "inputs": [],
      "name": "name",
      "outputs": [
        {
          "internalType": "string",
          "name": "",
          "type": "string"
        }
      ],
      "stateMutability": "view",
      "type": "function"
    },
    {
      "inputs": [],
      "name": "owner",
      "outputs": [
        {
          "internalType": "address",
          "name": "",
          "type": "address"
        }
      ],
      "stateMutability": "view",
      "type": "function"
    },
    {
      "inputs": [
        {
          "internalType": "address",
          "name": "to",
          "type": "address"
        },
        {
          "internalType": "uint256",
          "name": "amount",
          "type": "uint256"
        }
      ],
      "name": "ownerMint",
      "outputs": [],
      "stateMutability": "nonpayable",
      "type": "function"
    },
    {
      "inputs": [],
      "name": "renounceOwnership",
      "outputs": [],
      "stateMutability": "nonpayable",
      "type": "function"
    },
    {
      "inputs": [],
      "name": "symbol",
      "outputs": [
        {
          "internalType": "string",
          "name": "",
          "type": "string"
        }
      ],
      "stateMutability": "view",
      "type": "function"
    },
    {
      "inputs": [],
      "name": "totalSupply",
      "outputs": [
        {
          "internalType": "uint256",
          "name": "",
          "type": "uint256"
        }
      ],
      "stateMutability": "view",
      "type": "function"
    },
    {
      "inputs": [
        {
          "internalType": "address",
          "name": "to",
          "type": "address"
        },
        {
          "internalType": "uint256",
          "name": "value",
          "type": "uint256"
        }
      ],
      "name": "transfer",
      "outputs": [
        {
          "internalType": "bool",
          "name": "",
          "type": "bool"
        }
      ],
      "stateMutability": "nonpayable",
      "type": "function"
    },
    {
      "inputs": [
        {
          "internalType": "address",
          "name": "from",
          "type": "address"
        },
        {
          "internalType": "address",
          "name": "to",
          "type": "address"
        },
        {
          "internalType": "uint256",
          "name": "value",
          "type": "uint256"
        }
      ],
      "name": "transferFrom",
      "outputs": [
        {
          "internalType": "bool",
          "name": "",
          "type": "bool"
        }
      ],
      "stateMutability": "nonpayable",
      "type": "function"
    },
    {
      "inputs": [
        {
          "internalType": "address",
          "name": "newOwner",
          "type": "address"
        }
      ],
      "name": "transferOwnership",
      "outputs": [],
      "stateMutability": "nonpayable",
      "type": "function"
    }
  ],
  "bytecode": "0x60806040523480156200001157600080fd5b50604051620022da380380620022da83398181016040528101906200003791906200068f565b80838381600390816200004b919062000974565b5080600490816200005d919062000974565b505050600073ffffffffffffffffffffffffffffffffffffffff168173ffffffffffffffffffffffffffffffffffffffff1603620000d55760006040517f1e4fbdf7000000000000000000000000000000000000000000000000000000008152600401620000cc919062000a6c565b60405180910390fd5b620000e6816200011460201b60201c565b5060016006819055506200010b8169021e19e0c9bab2400000620001da60201b60201c565b50505062000b5e565b6000600560009054906101000a900473ffffffffffffffffffffffffffffffffffffffff16905081600560006101000a81548173ffffffffffffffffffffffffffffffffffffffff021916908373ffffffffffffffffffffffffffffffffffffffff1602179055508173ffffffffffffffffffffffffffffffffffffffff168173ffffffffffffffffffffffffffffffffffffffff167f8be0079c531659141344cd1fd0a4f28419497f9722a3daafe3b4186f6b6457e060405160405180910390a35050565b600073ffffffffffffffffffffffffffffffffffffffff168273ffffffffffffffffffffffffffffffffffffffff16036200024f5760006040517fec442f0500000000000000000000000000000000000000000000000000000000815260040162000246919062000a6c565b60405180910390fd5b62000263600083836200026760201b60201c565b5050565b600073ffffffffffffffffffffffffffffffffffffffff168373ffffffffffffffffffffffffffffffffffffffff1603620002bd578060026000828254620002b0919062000ab8565b9250508190555062000393565b60008060008573ffffffffffffffffffffffffffffffffffffffff1673ffffffffffffffffffffffffffffffffffffffff168152602001908152602001600020549050818110156200034c578381836040517fe450d38c000000000000000000000000000000000000000000000000000000008152600401620003439392919062000b04565b60405180910390fd5b8181036000808673ffffffffffffffffffffffffffffffffffffffff1673ffffffffffffffffffffffffffffffffffffffff16815260200190815260200160002081905550505b600073ffffffffffffffffffffffffffffffffffffffff168273ffffffffffffffffffffffffffffffffffffffff1603620003de57806002600082825403925050819055506200042b565b806000808473ffffffffffffffffffffffffffffffffffffffff1673ffffffffffffffffffffffffffffffffffffffff168152602001908152602001600020600082825401925050819055505b8173ffffffffffffffffffffffffffffffffffffffff168373ffffffffffffffffffffffffffffffffffffffff167fddf252ad1be2c89b69c2b068fc378daa952ba7f163c4a11628f55a4df523b3ef836040516200048a919062000b41565b60405180910390a3505050565b6000604051905090565b600080fd5b600080fd5b600080fd5b600080fd5b6000601f19601f8301169050919050565b7f4e487b7100000000000000000000000000000000000000000000000000000000600052604160045260246000fd5b6200050082620004b5565b810181811067ffffffffffffffff82111715620005225762000521620004c6565b5b80604052505050565b60006200053762000497565b9050620005458282620004f5565b919050565b600067ffffffffffffffff821115620005685762000567620004c6565b5b6200057382620004b5565b9050602081019050919050565b60005b83811015620005a057808201518184015260208101905062000583565b60008484015250505050565b6000620005c3620005bd846200054a565b6200052b565b905082815260208101848484011115620005e257620005e1620004b0565b5b620005ef84828562000580565b509392505050565b600082601f8301126200060f576200060e620004ab565b5b815162000621848260208601620005ac565b91505092915050565b600073ffffffffffffffffffffffffffffffffffffffff82169050919050565b600062000657826200062a565b9050919050565b62000669816200064a565b81146200067557600080fd5b50565b60008151905062000689816200065e565b92915050565b600080600060608486031215620006ab57620006aa620004a1565b5b600084015167ffffffffffffffff811115620006cc57620006cb620004a6565b5b620006da86828701620005f7565b935050602084015167ffffffffffffffff811115620006fe57620006fd620004a6565b5b6200070c86828701620005f7565b92505060406200071f8682870162000678565b9150509250925092565b600081519050919050565b7f4e487b7100000000000000000000000000000000000000000000000000000000600052602260045260246000fd5b600060028204905060018216806200077c57607f821691505b60208210810362000792576200079162000734565b5b50919050565b60008190508160005260206000209050919050565b60006020601f8301049050919050565b600082821b905092915050565b600060088302620007fc7fffffffffffffffffffffffffffffffffffffffffffffffffffffffffffffffff82620007bd565b620008088683620007bd565b95508019841693508086168417925050509392505050565b6000819050919050565b6000819050919050565b6000620008556200084f620008498462000820565b6200082a565b62000820565b9050919050565b6000819050919050565b620008718362000834565b6200088962000880826200085c565b848454620007ca565b825550505050565b600090565b620008a062000891565b620008ad81848462000866565b505050565b5b81811015620008d557620008c960008262000896565b600181019050620008b3565b5050565b601f8211156200092457620008ee8162000798565b620008f984620007ad565b8101602085101562000909578190505b620009216200091885620007ad565b830182620008b2565b50505b505050565b600082821c905092915050565b6000620009496000198460080262000929565b1980831691505092915050565b600062000964838362000936565b9150826002028217905092915050565b6200097f8262000729565b67ffffffffffffffff8111156200099b576200099a620004c6565b5b620009a7825462000763565b620009b4828285620008d9565b600060209050601f831160018114620009ec5760008415620009d7578287015190505b620009e3858262000956565b86555062000a53565b601f198416620009fc8662000798565b60005b8281101562000a2657848901518255600182019150602085019450602081019050620009ff565b8683101562000a46578489015162000a42601f89168262000936565b8355505b6001600288020188555050505b505050505050565b62000a66816200064a565b82525050565b600060208201905062000a83600083018462000a5b565b92915050565b7f4e487b7100000000000000000000000000000000000000000000000000000000600052601160045260246000fd5b600062000ac58262000820565b915062000ad28362000820565b925082820190508082111562000aed5762000aec62000a89565b5b92915050565b62000afe8162000820565b82525050565b600060608201905062000b1b600083018662000a5b565b62000b2a602083018562000af3565b62000b39604083018462000af3565b949350505050565b600060208201905062000b58600083018462000af3565b92915050565b61176c8062000b6e6000396000f3fe608060405234801561001057600080fd5b506004361061012c5760003560e01c806371127ed2116100ad57806395d89b411161007157806395d89b4114610323578063a9059cbb14610341578063dd62ed3e14610371578063e4b7fb73146103a1578063f2fde38b146103bf5761012c565b806371127ed21461027d578063715018a61461029b57806373b2e80e146102a557806384d504bc146102d55780638da5cb5b146103055761012c565b8063313ce567116100f4578063313ce567146101eb57806333039d3d14610209578063484b973c1461022757806348c54b9d1461024357806370a082311461024d5761012c565b806306fdde0314610131578063095ea7b31461014f57806318160ddd1461017f57806323b872dd1461019d578063270ef385146101cd575b600080fd5b6101396103db565b6040516101469190611268565b60405180910390f35b61016960048036038101906101649190611323565b61046d565b604051610176919061137e565b60405180910390f35b610187610490565b60405161019491906113a8565b60405180910390f35b6101b760048036038101906101b291906113c3565b61049a565b6040516101c4919061137e565b60405180910390f35b6101d56104c9565b6040516101e291906113a8565b60405180910390f35b6101f36104d5565b6040516102009190611432565b60405180910390f35b6102116104de565b60405161021e91906113a8565b60405180910390f35b610241600480360381019061023c9190611323565b6104ec565b005b61024b610561565b005b6102676004803603810190610262919061144d565b610727565b60405161027491906113a8565b60405180910390f35b61028561076f565b60405161029291906113a8565b60405180910390f35b6102a361077f565b005b6102bf60048036038101906102ba919061144d565b610793565b6040516102cc919061137e565b60405180910390f35b6102ef60048036038101906102ea919061144d565b6107b3565b6040516102fc919061137e565b60405180910390f35b61030d61080a565b60405161031a9190611489565b60405180910390f35b61032b610834565b6040516103389190611268565b60405180910390f35b61035b60048036038101906103569190611323565b6108c6565b604051610368919061137e565b60405180910390f35b61038b600480360381019061038691906114a4565b6108e9565b60405161039891906113a8565b60405180910390f35b6103a9610970565b6040516103b691906113a8565b60405180910390f35b6103d960048036038101906103d4919061144d565b610994565b005b6060600380546103ea90611513565b80601f016020809104026020016040519081016040528092919081815260200182805461041690611513565b80156104635780601f1061043857610100808354040283529160200191610463565b820191906000526020600020905b81548152906001019060200180831161044657829003601f168201915b5050505050905090565b600080610478610a1a565b9050610485818585610a22565b600191505092915050565b6000600254905090565b6000806104a5610a1a565b90506104b2858285610a34565b6104bd858585610ac9565b60019150509392505050565b678ac7230489e8000081565b60006012905090565b69d3c21bcecceda100000081565b6104f4610bbd565b69d3c21bcecceda100000081610508610490565b6105129190611573565b1115610553576040517f08c379a000000000000000000000000000000000000000000000000000000000815260040161054a90611619565b60405180910390fd5b61055d8282610c44565b5050565b610569610cc6565b600760003373ffffffffffffffffffffffffffffffffffffffff1673ffffffffffffffffffffffffffffffffffffffff16815260200190815260200160002060009054906101000a900460ff16156105f6576040517f08c379a00000000000000000000000000000000000000000000000000000000081526004016105ed906116ab565b60405180910390fd5b69d3c21bcecceda1000000678ac7230489e80000610612610490565b61061c9190611573565b111561065d576040517f08c379a000000000000000000000000000000000000000000000000000000000815260040161065490611619565b60405180910390fd5b6001600760003373ffffffffffffffffffffffffffffffffffffffff1673ffffffffffffffffffffffffffffffffffffffff16815260200190815260200160002060006101000a81548160ff0219169083151502179055506106c733678ac7230489e80000610c44565b3373ffffffffffffffffffffffffffffffffffffffff167f896e034966eaaf1adc54acc0f257056febbd300c9e47182cf761982cf1f5e430678ac7230489e8000060405161071591906113a8565b60405180910390a2610725610d0c565b565b60008060008373ffffffffffffffffffffffffffffffffffffffff1673ffffffffffffffffffffffffffffffffffffffff168152602001908152602001600020549050919050565b6000678ac7230489e80000905090565b610787610bbd565b6107916000610d16565b565b60076020528060005260406000206000915054906101000a900460ff1681565b6000600760008373ffffffffffffffffffffffffffffffffffffffff1673ffffffffffffffffffffffffffffffffffffffff16815260200190815260200160002060009054906101000a900460ff16159050919050565b6000600560009054906101000a900473ffffffffffffffffffffffffffffffffffffffff16905090565b60606004805461084390611513565b80601f016020809104026020016040519081016040528092919081815260200182805461086f90611513565b80156108bc5780601f10610891576101008083540402835291602001916108bc565b820191906000526020600020905b81548152906001019060200180831161089f57829003601f168201915b5050505050905090565b6000806108d1610a1a565b90506108de818585610ac9565b600191505092915050565b6000600160008473ffffffffffffffffffffffffffffffffffffffff1673ffffffffffffffffffffffffffffffffffffffff16815260200190815260200160002060008373ffffffffffffffffffffffffffffffffffffffff1673ffffffffffffffffffffffffffffffffffffffff16815260200190815260200160002054905092915050565b600061097a610490565b69d3c21bcecceda100000061098f91906116cb565b905090565b61099c610bbd565b600073ffffffffffffffffffffffffffffffffffffffff168173ffffffffffffffffffffffffffffffffffffffff1603610a0e5760006040517f1e4fbdf7000000000000000000000000000000000000000000000000000000008152600401610a059190611489565b60405180910390fd5b610a1781610d16565b50565b600033905090565b610a2f8383836001610ddc565b505050565b6000610a4084846108e9565b90507fffffffffffffffffffffffffffffffffffffffffffffffffffffffffffffffff811015610ac35781811015610ab3578281836040517ffb8f41b2000000000000000000000000000000000000000000000000000000008152600401610aaa939291906116ff565b60405180910390fd5b610ac284848484036000610ddc565b5b50505050565b600073ffffffffffffffffffffffffffffffffffffffff168373ffffffffffffffffffffffffffffffffffffffff1603610b3b5760006040517f96c6fd1e000000000000000000000000000000000000000000000000000000008152600401610b329190611489565b60405180910390fd5b600073ffffffffffffffffffffffffffffffffffffffff168273ffffffffffffffffffffffffffffffffffffffff1603610bad5760006040517fec442f05000000000000000000000000000000000000000000000000000000008152600401610ba49190611489565b60405180910390fd5b610bb8838383610fb3565b505050565b610bc5610a1a565b73ffffffffffffffffffffffffffffffffffffffff16610be361080a565b73ffffffffffffffffffffffffffffffffffffffff1614610c4257610c06610a1a565b6040517f118cdaa7000000000000000000000000000000000000000000000000000000008152600401610c399190611489565b60405180910390fd5b565b600073ffffffffffffffffffffffffffffffffffffffff168273ffffffffffffffffffffffffffffffffffffffff1603610cb65760006040517fec442f05000000000000000000000000000000000000000000000000000000008152600401610cad9190611489565b60405180910390fd5b610cc260008383610fb3565b5050565b600260065403610d02576040517f3ee5aeb500000000000000000000000000000000000000000000000000000000815260040160405180910390fd5b6002600681905550565b6001600681905550565b6000600560009054906101000a900473ffffffffffffffffffffffffffffffffffffffff16905081600560006101000a81548173ffffffffffffffffffffffffffffffffffffffff021916908373ffffffffffffffffffffffffffffffffffffffff1602179055508173ffffffffffffffffffffffffffffffffffffffff168173ffffffffffffffffffffffffffffffffffffffff167f8be0079c531659141344cd1fd0a4f28419497f9722a3daafe3b4186f6b6457e060405160405180910390a35050565b600073ffffffffffffffffffffffffffffffffffffffff168473ffffffffffffffffffffffffffffffffffffffff1603610e4e5760006040517fe602df05000000000000000000000000000000000000000000000000000000008152600401610e459190611489565b60405180910390fd5b600073ffffffffffffffffffffffffffffffffffffffff168373ffffffffffffffffffffffffffffffffffffffff1603610ec05760006040517f94280d62000000000000000000000000000000000000000000000000000000008152600401610eb79190611489565b60405180910390fd5b81600160008673ffffffffffffffffffffffffffffffffffffffff1673ffffffffffffffffffffffffffffffffffffffff16815260200190815260200160002060008573ffffffffffffffffffffffffffffffffffffffff1673ffffffffffffffffffffffffffffffffffffffff168152602001908152602001600020819055508015610fad578273ffffffffffffffffffffffffffffffffffffffff168473ffffffffffffffffffffffffffffffffffffffff167f8c5be1e5ebec7d5bd14f71427d1e84f3dd0314c0f7b2291e5b200ac8c7c3b92584604051610fa491906113a8565b60405180910390a35b50505050565b600073ffffffffffffffffffffffffffffffffffffffff168373ffffffffffffffffffffffffffffffffffffffff1603611005578060026000828254610ff99190611573565b925050819055506110d8565b60008060008573ffffffffffffffffffffffffffffffffffffffff1673ffffffffffffffffffffffffffffffffffffffff16815260200190815260200160002054905081811015611091578381836040517fe450d38c000000000000000000000000000000000000000000000000000000008152600401611088939291906116ff565b60405180910390fd5b8181036000808673ffffffffffffffffffffffffffffffffffffffff1673ffffffffffffffffffffffffffffffffffffffff16815260200190815260200160002081905550505b600073ffffffffffffffffffffffffffffffffffffffff168273ffffffffffffffffffffffffffffffffffffffff1603611121578060026000828254039250508190555061116e565b806000808473ffffffffffffffffffffffffffffffffffffffff1673ffffffffffffffffffffffffffffffffffffffff168152602001908152602001600020600082825401925050819055505b8173ffffffffffffffffffffffffffffffffffffffff168373ffffffffffffffffffffffffffffffffffffffff167fddf252ad1be2c89b69c2b068fc378daa952ba7f163c4a11628f55a4df523b3ef836040516111cb91906113a8565b60405180910390a3505050565b600081519050919050565b600082825260208201905092915050565b60005b838110156112125780820151818401526020810190506111f7565b60008484015250505050565b6000601f19601f8301169050919050565b600061123a826111d8565b61124481856111e3565b93506112548185602086016111f4565b61125d8161121e565b840191505092915050565b60006020820190508181036000830152611282818461122f565b905092915050565b600080fd5b600073ffffffffffffffffffffffffffffffffffffffff82169050919050565b60006112ba8261128f565b9050919050565b6112ca816112af565b81146112d557600080fd5b50565b6000813590506112e7816112c1565b92915050565b6000819050919050565b611300816112ed565b811461130b57600080fd5b50565b60008135905061131d816112f7565b92915050565b6000806040838503121561133a5761133961128a565b5b6000611348858286016112d8565b92505060206113598582860161130e565b9150509250929050565b60008115159050919050565b61137881611363565b82525050565b6000602082019050611393600083018461136f565b92915050565b6113a2816112ed565b82525050565b60006020820190506113bd6000830184611399565b92915050565b6000806000606084860312156113dc576113db61128a565b5b60006113ea868287016112d8565b93505060206113fb868287016112d8565b925050604061140c8682870161130e565b9150509250925092565b600060ff82169050919050565b61142c81611416565b82525050565b60006020820190506114476000830184611423565b92915050565b6000602082840312156114635761146261128a565b5b6000611471848285016112d8565b91505092915050565b611483816112af565b82525050565b600060208201905061149e600083018461147a565b92915050565b600080604083850312156114bb576114ba61128a565b5b60006114c9858286016112d8565b92505060206114da858286016112d8565b9150509250929050565b7f4e487b7100000000000000000000000000000000000000000000000000000000600052602260045260246000fd5b6000600282049050600182168061152b57607f821691505b60208210810361153e5761153d6114e4565b5b50919050565b7f4e487b7100000000000000000000000000000000000000000000000000000000600052601160045260246000fd5b600061157e826112ed565b9150611589836112ed565b92508282019050808211156115a1576115a0611544565b5b92915050565b7f576f756c6420657863656564206d6178696d756d20746f74616c20737570706c60008201527f7900000000000000000000000000000000000000000000000000000000000000602082015250565b60006116036021836111e3565b915061160e826115a7565b604082019050919050565b60006020820190508181036000830152611632816115f6565b9050919050565b7f416464726573732068617320616c726561647920636c61696d656420746f6b6560008201527f6e73000000000000000000000000000000000000000000000000000000000000602082015250565b60006116956022836111e3565b91506116a082611639565b604082019050919050565b600060208201905081810360008301526116c481611688565b9050919050565b60006116d6826112ed565b91506116e1836112ed565b92508282039050818111156116f9576116f8611544565b5b92915050565b6000606082019050611714600083018661147a565b6117216020830185611399565b61172e6040830184611399565b94935050505056fea26469706673582212208953ad9ff056148ea82463fd906149c092ff202fb723bdb8edbbe6b29511e79064736f6c63430008180033",
  "linkReferences": {},
  "deployedLinkReferences": {}
}